S01600004C45445F41737369676E6D656E742E73726563C1
S11300000C942A000C9447000C9447000C9447006D
S11300100C9447000C9447000C9447000C94470040
S11300200C9447000C9447000C9447000C94470030
S11300300C9447000C9447000C9447000C94470020
S11300400C9447000C9447000C9447000C94470010
S11300500C94470011241FBECFE5D8E0DEBFCDBF0E
S113006010E0A0E6B0E0E4EDF5E002C005900D92EA
S1130070A636B107D9F720E0A6E6B0E001C01D928C
S1130080AA36B207E1F70E94FF000C94E8020C9430
S113009000006091610081E40E94F00081111EC0A3
S11300A06091620081E40E94F000811119C06091A6
S11300B0630081E40E94F000811114C06091640027
S11300C081E40E94F00081110FC06091600083E41C
S11300D00E94E900882351F082E0089581E00895A8
S11300E081E0089581E0089581E0089580E0089515
S11300F0E0916800F0916900EF59FF4F46E650E047
S1130100608181E40E94FC00811157C047E650E001
S11301106091600083E40E94ED00811150C08091E1
S11301206700813009F04DC02FE58AEE90E0215040
S113013080409040E1F700C000008091660081118A
S11301401FC0E0916800F0916900EF59FF4F608192
S113015081E40E94F400811136C08091680090917E
S11301606900019683709078992324F401978C6F29
S11301709F6F0196909369008093680080E00895D2
S1130180813019F5E0916800F0916900EF59FF4F53
S1130190608181E40E94F800811119C08091680097
S11301A090916900019664E070E00E94C00290930F
S11301B069008093680080E0089581E0089582E0FA
S11301C0089584E0089581E0089584E0089581E02D
S11301D0089540E00E94760108950E945102089516
S11301E041E00E947601089541E00E94BF01089514
S11301F040E00E94BF0108950E94510208950E94A8
S113020049000E947800FDCF8234A9F018F48134AB
S113021031F008958334D9F0843429F108952AB350
S113022081E090E002C0880F991F6A95E2F78095FB
S113023082238ABB089527B381E090E002C0880F2F
S1130240991F6A95E2F78095822387BB089524B3AA
S113025081E090E002C0880F991F6A95E2F78095CB
S1130260822384BB089521B381E090E002C0880F0B
S1130270991F6A95E2F78095822381BB08958234A1
S1130280A1F018F4813431F008958334C9F0843432
S113029011F108952AB381E090E002C0880F991FFC
S11302A06A95E2F7822B8ABB089527B381E090E038
S11302B002C0880F991F6A95E2F7822B87BB0895C5
S11302C024B381E090E002C0880F991F6A95E2F799
S11302D0822B84BB089521B381E090E002C0880F93
S11302E0991F6A95E2F7822B81BB08956830D8F58F
S11302F08234A9F018F4813431F037C08334D9F052
S1130300843429F132C0411104C00E94040180E008
S11303100895413061F50E943F0180E00895411144
S113032004C00E94040180E00895413011F50E9448
S11303303F0180E00895411104C00E94040180E05F
S113034008954130C1F40E943F0180E008954111B5
S113035004C00E94040181E00895413071F40E94B8
S11303603F0180E0089582E0089581E0089583E0EC
S1130370089583E0089583E0089583E00895683044
S113038008F083C0823449F118F4813441F07FC00D
S1130390833409F440C0843409F45AC078C041114C
S11303A00DC02BB381E090E002C0880F991F6A95BD
S11303B0E2F7809582238BBB80E00895413009F0F9
S11303C068C02BB381E090E002C0880F991F6A9542
S11303D0E2F7822B8BBB80E0089541110DC028B356
S11303E081E090E002C0880F991F6A95E2F780953A
S11303F0822388BB80E00895413009F04CC028B3C3
S113040081E090E002C0880F991F6A95E2F7822B81
S113041088BB80E0089541110DC025B381E090E0D0
S113042002C0880F991F6A95E2F78095822385BBE5
S113043080E00895413089F525B381E090E002C061
S1130440880F991F6A95E2F7822B85BB80E0089597
S113045041110DC022B381E090E002C0880F991FC2
S11304606A95E2F78095822382BB80E0089541304B
S1130470B1F422B381E090E002C0880F991F6A951D
S1130480E2F7822B82BB80E0089582E0089581E048
S1130490089584E0089584E0089584E0089584E054
S11304A00895683008F068C0823409F118F4813482
S11304B039F064C0833491F1843409F446C05EC0D9
S11304C079B381E090E09C01062E02C0220F331F15
S11304D00A94E2F7872F90E08223932302C0959534
S11304E087956A95E2F7FA01808380E0089576B3F0
S11304F081E090E09C01062E02C0220F331F0A9473
S1130500E2F7872F90E08223932302C09595879585
S11305106A95E2F7FA01808380E0089573B381E07D
S113052090E09C01062E02C0220F331F0A94E2F7CA
S1130530872F90E08223932302C0959587956A952F
S1130540E2F7FA01808380E0089570B381E090E0DF
S11305509C01062E02C0220F331F0A94E2F7872F54
S113056090E08223932302C0959587956A95E2F7DC
S1130570FA01808380E0089582E0089581E008957F
S113058097FB072E16F4009407D077FD09D00E943C
S1130590D40207FC05D03EF4909581959F4F0895B1
S11305A0709561957F4F0895AA1BBB1B51E107C04D
S11305B0AA1FBB1FA617B70710F0A61BB70B881FEF
S11305C0991F5A95A9F780959095BC01CD0108957E
S10705D0F894FFCFC9
S10905D401040506070006
S9030000FC
